{
  "contractName": "Ticketing",
  "abi": [
    {
      "anonymous": false,
      "inputs": [
        {
          "indexed": false,
          "internalType": "bytes32",
          "name": "ticketId",
          "type": "bytes32"
        },
        {
          "indexed": false,
          "internalType": "address",
          "name": "issuer",
          "type": "address"
        }
      ],
      "name": "TicketIssued",
      "type": "event"
    },
    {
      "anonymous": false,
      "inputs": [
        {
          "indexed": false,
          "internalType": "bytes32",
          "name": "ticketId",
          "type": "bytes32"
        },
        {
          "indexed": false,
          "internalType": "bool",
          "name": "isValid",
          "type": "bool"
        }
      ],
      "name": "TicketVerified",
      "type": "event"
    },
    {
      "inputs": [
        {
          "internalType": "bytes32",
          "name": "",
          "type": "bytes32"
        }
      ],
      "name": "tickets",
      "outputs": [
        {
          "internalType": "string",
          "name": "passengerName",
          "type": "string"
        },
        {
          "internalType": "string",
          "name": "passengerNID",
          "type": "string"
        },
        {
          "internalType": "string",
          "name": "travelDate",
          "type": "string"
        },
        {
          "internalType": "string",
          "name": "departure",
          "type": "string"
        },
        {
          "internalType": "string",
          "name": "arrival",
          "type": "string"
        },
        {
          "internalType": "address",
          "name": "issuer",
          "type": "address"
        }
      ],
      "stateMutability": "view",
      "type": "function",
      "constant": true
    },
    {
      "inputs": [
        {
          "internalType": "string",
          "name": "_passengerName",
          "type": "string"
        },
        {
          "internalType": "string",
          "name": "_passengerNID",
          "type": "string"
        },
        {
          "internalType": "string",
          "name": "_travelDate",
          "type": "string"
        },
        {
          "internalType": "string",
          "name": "_departure",
          "type": "string"
        },
        {
          "internalType": "string",
          "name": "_arrival",
          "type": "string"
        }
      ],
      "name": "issueTicket",
      "outputs": [
        {
          "internalType": "bytes32",
          "name": "",
          "type": "bytes32"
        }
      ],
      "stateMutability": "nonpayable",
      "type": "function"
    },
    {
      "inputs": [
        {
          "internalType": "bytes32",
          "name": "_ticketId",
          "type": "bytes32"
        }
      ],
      "name": "verifyTicket",
      "outputs": [
        {
          "internalType": "bool",
          "name": "",
          "type": "bool"
        }
      ],
      "stateMutability": "nonpayable",
      "type": "function"
    }
  ],
  "bytecode": "0x608060405234801561001057600080fd5b50610974806100206000396000f3fe608060405234801561001057600080fd5b50600436106100415760003560e01c80630e5f14eb1461004657806366ca91261461006f578063df0dd0d51461008f575b600080fd5b61005961005436600461066e565b6100b4565b6040516100669190610805565b60405180910390f35b61008261007d366004610686565b610114565b6040516100669190610810565b6100a261009d36600461066e565b61026f565b60405161006696959493929190610840565b6000818152602081905260408082206005015490516001600160a01b039091161515907f9593ab9aff3bd3dfb212266f76658e141c60e053ec70c1cfb95de90837dfe880906101069085908490610830565b60405180910390a192915050565b6000808686868686336040516020016101329695949392919061077e565b60408051601f19818403018152828252805160209182012060c0840183528a84528382018a905283830189905260608401889052608084018790523360a08501526000818152808352929092208351805193955090926101959284920190610554565b5060208281015180516101ae9260018501920190610554565b50604082015180516101ca916002840191602090910190610554565b50606082015180516101e6916003840191602090910190610554565b5060808201518051610202916004840191602090910190610554565b5060a09190910151600590910180546001600160a01b0319166001600160a01b039092169190911790556040517e784468dbeab1ecf3983884752af04607ff6b4b5e74af7e3829045eb64a4a539061025d9083903390610819565b60405180910390a19695505050505050565b60006020819052908152604090208054819061028a906108ed565b80601f01602080910402602001604051908101604052809291908181526020018280546102b6906108ed565b80156103035780601f106102d857610100808354040283529160200191610303565b820191906000526020600020905b8154815290600101906020018083116102e657829003601f168201915b505050505090806001018054610318906108ed565b80601f0160208091040260200160405190810160405280929190818152602001828054610344906108ed565b80156103915780601f1061036657610100808354040283529160200191610391565b820191906000526020600020905b81548152906001019060200180831161037457829003601f168201915b5050505050908060020180546103a6906108ed565b80601f01602080910402602001604051908101604052809291908181526020018280546103d2906108ed565b801561041f5780601f106103f45761010080835404028352916020019161041f565b820191906000526020600020905b81548152906001019060200180831161040257829003601f168201915b505050505090806003018054610434906108ed565b80601f0160208091040260200160405190810160405280929190818152602001828054610460906108ed565b80156104ad5780601f10610482576101008083540402835291602001916104ad565b820191906000526020600020905b81548152906001019060200180831161049057829003601f168201915b5050505050908060040180546104c2906108ed565b80601f01602080910402602001604051908101604052809291908181526020018280546104ee906108ed565b801561053b5780601f106105105761010080835404028352916020019161053b565b820191906000526020600020905b81548152906001019060200180831161051e57829003601f168201915b505050600590930154919250506001600160a01b031686565b828054610560906108ed565b90600052602060002090601f01602090048101928261058257600085556105c8565b82601f1061059b57805160ff19168380011785556105c8565b828001600101855582156105c8579182015b828111156105c85782518255916020019190600101906105ad565b506105d49291506105d8565b5090565b5b808211156105d457600081556001016105d9565b600082601f8301126105fd578081fd5b813567ffffffffffffffff8082111561061857610618610928565b604051601f8301601f19168101602001828111828210171561063c5761063c610928565b604052828152848301602001861015610653578384fd5b82602086016020830137918201602001929092529392505050565b60006020828403121561067f578081fd5b5035919050565b600080600080600060a0868803121561069d578081fd5b853567ffffffffffffffff808211156106b4578283fd5b6106c089838a016105ed565b965060208801359150808211156106d5578283fd5b6106e189838a016105ed565b955060408801359150808211156106f6578283fd5b61070289838a016105ed565b94506060880135915080821115610717578283fd5b61072389838a016105ed565b93506080880135915080821115610738578283fd5b50610745888289016105ed565b9150509295509295909350565b6000815180845261076a8160208601602086016108bd565b601f01601f19169290920160200192915050565b60008751610790818460208c016108bd565b8751908301906107a4818360208c016108bd565b87519101906107b7818360208b016108bd565b86519101906107ca818360208a016108bd565b85519101906107dd8183602089016108bd565b60609490941b6bffffffffffffffffffffffff19169301928352505060140195945050505050565b901515815260200190565b90815260200190565b9182526001600160a01b0316602082015260400190565b9182521515602082015260400190565b600060c0825261085360c0830189610752565b82810360208401526108658189610752565b905082810360408401526108798188610752565b9050828103606084015261088d8187610752565b905082810360808401526108a18186610752565b91505060018060a01b03831660a0830152979650505050505050565b60005b838110156108d85781810151838201526020016108c0565b838111156108e7576000848401525b50505050565b60028104600182168061090157607f821691505b6020821081141561092257634e487b7160e01b600052602260045260246000fd5b50919050565b634e487b7160e01b600052604160045260246000fdfea2646970667358221220d55c3f7e1706cae20e2a8f2e17deea122c0486f24dbacb4496803fa30e635e7e64736f6c63430008000033",
  "immutableReferences": {},
  "source": "pragma solidity ^0.8.0;\n\ncontract Ticketing {\n    struct Ticket {\n        string passengerName;\n        string passengerNID;\n        string travelDate;\n        string departure;\n        string arrival;\n        address issuer;\n    }\n\n    mapping(bytes32 => Ticket) public tickets;\n\n    event TicketIssued(bytes32 ticketId, address issuer);\n    event TicketVerified(bytes32 ticketId, bool isValid);\n\n    function issueTicket(\n        string memory _passengerName,\n        string memory _passengerNID,\n        string memory _travelDate,\n        string memory _departure,\n        string memory _arrival\n    ) public returns (bytes32) {\n        bytes32 ticketId = keccak256(abi.encodePacked(_passengerName, _passengerNID, _travelDate, _departure, _arrival, msg.sender));\n        tickets[ticketId] = Ticket(_passengerName, _passengerNID, _travelDate, _departure, _arrival, msg.sender);\n        emit TicketIssued(ticketId, msg.sender);\n        return ticketId;\n    }\n\n    function verifyTicket(bytes32 _ticketId) public returns (bool) {\n        bool isValid = tickets[_ticketId].issuer != address(0);\n        emit TicketVerified(_ticketId, isValid);\n        return isValid;\n    }\n}\n",
  "sourcePath": "/Users/maruffarhanrigan/Desktop/railway-ticketing/contracts/Ticketing.sol",
  "compiler": {
    "name": "solc",
    "version": "0.8.0+commit.c7dfd78e.Emscripten.clang"
  },
  "schemaVersion": "3.4.16",
  "updatedAt": "2024-06-10T11:08:09.058Z",
  "networkType": "ethereum",
  "devdoc": {
    "kind": "dev",
    "methods": {},
    "version": 1
  },
  "userdoc": {
    "kind": "user",
    "methods": {},
    "version": 1
  }
}